:03000000020003F8
:0C000300787FE4F6D8FD75811702004AF2
:1003B00001420102030405060708090A0B0C0D0E91
:0203C0000F101C
:0B03C200090A0000000000000000001D
:10029D00E4FDFCC3ED9FEE6480F8EC64809850158E
:1002AD00E4FBFA0BBB00010ABA04F8BBB0F50DBDB7
:0502BD0000010C80DED1
:0102C2002219
:10033F00D2A2D2A0D2A6D2A4C2A3C2A1C2A7C2A542
:07034F007F0A7E0002029DFF
:10035600D2A3D2A1D2A7D2A5C2A2C2A0C2A6C2A42B
:070366007F0A7E0002029DE8
:10036D00C2A4C2A0D2A5D2A1C2A7C2A3D2A6D2A214
:07037D007F0A7E0002029DD1
:10038400D2A4D2A0C2A5C2A1D2A7D2A3C2A6C2A2FD
:070394007F0A7E0002029DBA
:0A032200D293E4FFFE12032CC293F5
:10032C00E4FDFCC3ED9FEC9E5008000DBD00010CDC
:02033C0080F14E
:01033E00229C
:0B00F300C2927F107E0012032C7F01E0
:0200FE00AB074E
:10010000751600751701E4F50BF516751701C3E5B3
:100110001694015027EBFFE5175F6004D29180022F
:10012000C291120322D293309005AF17EF420BE534
:100130001725E0F517E51633F51680D27F107E00FF
:0301400002032C8B
:10030300C2929003B0E493FF1200FEA3E493FF12A2
:0F03130000FED292E50BB473037F00227F01221C
:10008F00E4F513F514751501C2929003B093FF12A6
:10009F0000FEA3E493FF1200FE75130275140075A2
:1000AF001501C3E51494015028120322D293309006
:1000BF0013AF15AE13740A2EF8E64FFFAE13740A82
:1000CF002EF8A607E51525E0F515E51433F5148090
:1000DF00D17F107E0012032C0513E513C394094042
:0300EF00BBD292EF
:0100F20022EB
:100188001203CE12008FE50EF508E50DF509E4FD22
:10019800ED9003B29314FF74017E00A80708800550
:1001A800C333CE33CED8F9FFE5085EFEE5095F4ECE
:0C01B8007004ED04FF220DBD10D67F0086
:0101C4002218
:0703D800740A2FF8E6FF2272
:0903CE007F09780AE4F608DFFC5F
:0103D7002203
:1001C500AA05A9071200F37F421200FEE4FF120000
:1001D500FEAF011200FEAF021200FEE4FF1200FEA8
:1001E500E4FF1200FEE4FF1200FEE4FF1200FED25F
:0801F500927F107E0002032C32
:1002C3001200F37F421200FEE4FF1200FEE4FF126D
:1002D30000FEE4FF1200FED2927F107E0002032C88
:100235001200F37F431200FEE4FF1200FE7F01125D
:1002450000FEE4FF1200FEE4FF1200FEE4FF1200D0
:10025500FEE4FF1200FEE4FF1200FED2927F107E44
:040265000002032C64
:1001FD00C2927F011200FE7F441200FEE4FF120046
:10020D00FE7F011200FE7FEE1200FEE4FF1200FEE3
:10021D00E4FF1200FEE4FF1200FEE4FF1200FED226
:08022D00927F107E0002032CF9
:1002E3001200F37F4D1200FEE4FF1200FEE4FF1242
:1002F30000FE7F011200FED2927F107E0002032CCB
:100269001200F37F431200FEE4FF1200FEE4FF12C6
:1002790000FE7F5A1200FE7F5A1200FE7F5A1200BA
:10028900FE7F5A1200FE7F5A1200FED2927F107E24
:040299000002032C30
:10039B001202C31202C31202C31202351201FD1262
:0503AB0002E3020269FB
:10014300D2AF120188A907B90BF87F0A7E00120209
:100153009D120188A907B9050712033F7964801C22
:10016300B9070712035679648012B9060712036DA3
:1001730079648008B9080512038479647F147E00CA
:0501830012029D80CC7A
:10000F00020143E493A3F8E493A34003F68001F2C3
:10001F0008DFF48029E493A3F85407240CC8C333F2
:10002F00C4540F4420C8834004F456800146F6DFC1
:10003F00E4800B01020408102040809003C2E47E8C
:10004F00019360BCA3FF543F30E509541FFEE493B6
:10005F00A360010ECF54C025E060A840B8E493A37D
:10006F00FAE493A3F8E493A3C8C582C8CAC583CAA8
:10007F00F0A3C8C582C8CAC583CADFE9DEE780BE60
:0103CD00002F
:00000001FF
