:030000000200FDFE
:0C00FD00787FE4F6D8FD75811B020144F9
:1004E50001420102030405060708090A0B0C0D0E5B
:0204F5000F10E6
:0F04F70002080041090E00000000000000000094
:040389007F027E0071
:10038D00E4FDFCC3ED9FEE6480F8EC64809850159D
:10039D00E4FBFA0BBB00010ABA04F8BBB0F50DBDC6
:0503AD0000010C80DEE0
:0103B2002228
:10042F00D2A2D294D296D2A4C2A3C2A0C297C2A57E
:07043F007F027E0002038D25
:10044600D2A3D2A0D297D2A5C2A2C294C296C2A467
:070456007F027E0002038D0E
:10045D00C2A4C294D2A5D2A0C297C2A3D296D2A250
:07046D007F027E0002038DF7
:10047400D2A4D294C2A5C2A0D297D2A3C296C2A239
:070484007F027E0002038DE0
:10048B00C2A4C294C2A5C2A0C297C2A3C296C2A262
:07049B007F027E0002038DC9
:1004A200C2A2C294C297C2A0C2A3C2A5D296D2A42B
:0704B2007F027E0002038DB2
:1004B900C2A2C294D2A3D2A0C297C2A5C296C2A414
:0704C9007F027E0002038D9B
:0D000E00120389C2B57F2812038DD2B522DE
:06053300120389C2B5228B
:06053900120389D2B52275
:0E050700438911758DFF758B47D28ED2AF22BE
:03001B0002052AB1
:09052A00758DFF758B47B2A732F5
:0B051500758CFC758A18D28CD2A922CC
:03000B000202EA04
:1002EA00C0E0C0D0758CFF758A47050BE50B70021C
:1002FA00050AC39509E50A95085004D2A18002C2ED
:10030A00A1C3E50B9464E50A94004006750A0075DA
:07031A000B00D0D0D0E0324F
:0A041200D293E4FFFE12041CC29313
:10041C00E4FDFCC3ED9FEC9E5008000DBD00010CEB
:02042C0080F15D
:01042E0022AB
:0B01ED00C2927F107E0012041C7F01F4
:0201F800AB0753
:1001FA00751A00751B01E4F50FF51A751B01C3E5A5
:10020A001A94015027EBFFE51B5F6004D29180022C
:10021A00C291120412D293309005AF1BEF420FE540
:10022A001B25E0F51BE51A33F51A80D27F107E00F4
:03023A0002041C9F
:1003F300C2929004E5E493FF1201F8A3E493FF1281
:0F04030001F8D292E50FB473037F00227F01222C
:10018900E4F517F518751901C2929004E593FF1269
:1001990001F8A3E493FF1201F875170275180075A9
:1001A9001901C3E51894015028120412D293309012
:1001B90013AF19AE17740E2EF8E64FFFAE17740E73
:1001C9002EF8A607E51925E0F519E51833F5188085
:1001D900D17F107E0012041C0517E517C39409404E
:0301E900BBD292F4
:0101EC0022F0
:10023D00120520120189E512F50CE511F50DE4FD0D
:10024D00ED9004E79314FF74017E00A80708800564
:10025D00C333CE33CED8F9FFE50C5EFEE50D5F4E10
:0C026D007004ED04FF220DBD10D67F00D0
:010279002262
:07000300740E2FF8E6FF2246
:090520007F09780EE4F608DFFC07
:0105290022AF
:10027A00AA05A9071201ED7F421201F8E4FF120153
:10028A00F8AF011201F8AF021201F8E4FF1201F807
:10029A00E4FF1201F8E4FF1201F8E4FF1201F8D2B8
:0802AA00927F107E0002041C8B
:1003B3001201ED7F421201F8E4FF1201F8E4FF128B
:1003C30001F8E4FF1201F8D2927F107E0002041CB0
:100321001201ED7F431201F8E4FF1201F87F01127F
:1003310001F8E4FF1201F8E4FF1201F8E4FF1201F1
:10034100F8E4FF1201F8E4FF1201F8D2927F107E67
:040351000002041C86
:1002B200C2927F011201F87F441201F8E4FF120199
:1002C200F87F011201F87FEE1201F8E4FF1201F843
:1002D200E4FF1201F8E4FF1201F8E4FF1201F8D280
:0802E200927F107E0002041C53
:1003D3001201ED7F4D1201F8E4FF1201F8E4FF1260
:1003E30001F87F011201F8D2927F107E0002041CF3
:100355001201ED7F431201F8E4FF1201F8E4FF12E8
:1003650001F87F5A1201F87F5A1201F87F5A1201DB
:10037500F87F5A1201F87F5A1201F8D2927F107E47
:040385000002041C52
:1004D0001203B31203B31203B31203211202B212B6
:0504E00003D3020355E7
:10001E00D2AF12050712051512023DA907B902F853
:10002E007F0A7E0012038D12023DA907E9B411006A
:10003E0040030200F390004AF828287302007D0264
:10004E0000A20200A90200F30200EE0200DF02008D
:10005E00CD0200D50200C50200B00200F30200B7C7
:10006E000200BE02008602009B02009402008D1266
:10007E00048BC2AB7964806D12042F796480661292
:10008E00045D7964805F12044679648058120474AA
:10009E00796480511204A27964804A12048B7964C7
:1000AE0080431205337964803C12053979648035BA
:1000BE0012000E7964802ED2ABC2A679648026D24D
:1000CE00ABD2A67964801E74FE2509F50974FF80F3
:1000DE000774022509F509E43508F50879648005E9
:0F00EE001204B979647F057E0012038D0200357C
:1001090002001EE493A3F8E493A34003F68001F2EE
:1001190008DFF48029E493A3F85407240CC8C333F7
:10012900C4540F4420C8834004F456800146F6DFC6
:10013900E4800B01020408102040809004F7E47E5B
:10014900019360BCA3FF543F30E509541FFEE493BB
:10015900A360010ECF54C025E060A840B8E493A382
:10016900FAE493A3F8E493A3C8C582C8CAC583CAAD
:10017900F0A3C8C582C8CAC583CADFE9DEE780BE65
:0105060000F4
:00000001FF
