:060003000108460109009E
:1001A400759850758921E4F587758DFD758BFDD2A1
:0601B400ACD2AFD28E2296
:0B000E00758CFC758A18D28CD2A922D8
:09001900C2A0D2A1D2A2C2A3220E
:0901C500D2A0C2A1C2A2D2A32261
:0901CE00D2A0C2A1D2A2C2A32258
:0901D700C2A0D2A1C2A2D2A3224F
:0901E000C2A0C2A1C2A2C2A32266
:1000B200E50A7076E50B12015E00F430010F3100A3
:1000C200EC3201143300EE3401193500F036011E12
:1000D2003700F23801233900F6410100430105459A
:1000E20000FB4700F45A0000012C8008800B800EB0
:1000F200801180141201CE802B1200198026120169
:10010200C580211201D7801C1201E08017750814E6
:100112008012750828800D75083280087508508095
:0B01220003750864750A00750B642269
:0B01BA001201A412000E1200B280FB24
:0300230002018453
:10018400C0D075D000C007309811AF99750A008FA0
:100194000BC298850B993099FDC299D007D0D03203
:03000B0002012DC2
:10012D00C0E0C0D0758CFF758A470509E509D395E8
:10013D00085004D2A4D2A5E509D395084004C2A461
:10014D00C2A5E509C394644003750900D0D0D0E081
:01015D00326F
:03000000020026D5
:0C002600787FE4F6D8FD75810B02006DB8
:10015E00D083D082F8E4937012740193700DA3A330
:10016E0093F8740193F5828883E473740293686044
:06017E00EFA3A3A380DF44
:100032000201BAE493A3F8E493A34003F68001F229
:1000420008DFF48029E493A3F85407240CC8C333CF
:10005200C4540F4420C8834004F456800146F6DF9E
:10006200E4800B0102040810204080900003E47E2B
:10007200019360BCA3FF543F30E509541FFEE49393
:10008200A360010ECF54C025E060A840B8E493A35A
:10009200FAE493A3F8E493A3C8C582C8CAC583CA85
:1000A200F0A3C8C582C8CAC583CADFE9DEE780BE3D
:0100090000F6
:00000001FF
